:020000040800F2
:1080000000800120FDD10008399000083B90000855
:108010003D9000083F9000084190000800000000DB
:108020000000000000000000000000004390000875
:1080300045900008000000004790000849900008A3
:108040004DD200084DD200084DD200084DD2000894
:108050004DD200084DD200084DD200084DD2000884
:108060004DD200084DD200084DD200084DD2000874
:108070004DD200084DD200084DD200084DD2000864
:108080004DD200084DD200084DD200084DD2000854
:108090004DD200084DD200084DD200084DD2000844
:1080A0004DD200084DD200084DD200084DD2000834
:1080B0004DD200084DD200084DD200084DD2000824
:1080C0004DD200084DD200084DD200084DD2000814
:1080D0004DD200084DD200084DD200084DD2000804
:1080E0004DD200084DD200084DD200084DD20008F4
:1080F0004DD200084DD200084DD200084DD20008E4
:108100004DD200084DD200084DD200084DD20008D3
:108110004DD200084DD200084DD200084DD20008C3
:108120004DD200084DD200084DD200084DD20008B3
:108130004DD200084DD200084DD200084DD20008A3
:108140004DD200084DD200084DD2000851900008D1
:108150004DD200084DD200084DD200084DD2000883
:108160004DD200084DD200084DD200084DD2000873
:108170004DD200084DD200084DD20008000000008A
:088180004DD200084DD20008A9
:1081900010B5054C237833B9044B13B10448AFF341
:1081A00000800123237010BD100200200000000099
:1081B000F0DA000808B5034B1BB103490348AFF3DD
:1081C000008008BD0000000014020020F0DA000862
:1081D00001F0FF01102A2BDB10F0070F08D010F878
:1081E000013B013A8B422DD010F0070F42B3F6D17C
:1081F000F0B441EA012141EA014122F007047FF095
:1082000000070023F0E80256083C85EA010586EAEB
:10821000010685FA47F5A3FA87F586FA47F6A5FA27
:1082200087F68EB9EED1F0BC01F0FF0102F0070233
:1082300032B110F8013B013A83EA010313B1F8D1DE
:108240000020704701387047002D06BF35460338BF
:10825000073815F0010F07D1013015F4807F02BFF8
:10826000013015F4C03F0130F0BC0138704700BF49
:1082700053B94AB9002908BF00281CBF4FF0FF318D
:108280004FF0FF3000F072B9ADF1080C6DE904CE8B
:1082900000F006F8DDF804E0DDE9022304B07047E1
:1082A0002DE9F047089E04468846002B4BD18A42B0
:1082B000154667D9B2FA82F24AB1C2F1200701FA33
:1082C00002F320FA07F7954047EA030894404FEA83
:1082D000154E230CB8FBFEF71FFA85FC0EFB178822
:1082E00043EA084307FB0CF1994209D9EB1807F15F
:1082F000FF3080F01B81994240F21881023F2B44ED
:108300005B1AA4B2B3FBFEF00EFB103344EA034445
:1083100000FB0CFCA44509D92C1900F1FF3380F0B7
:108320000781A44540F2048102382C4440EA07400A
:10833000A4EB0C0400271EB1D4400023C6E900437F
:108340003946BDE8F0878B4209D9002E00F0EB805A
:108350000027C6E9000138463946BDE8F087B3FA80
:1083600083F7002F47D18B4202D3824200F2FA807A
:10837000841A61EB030301209846002EE0D0C6E981
:108380000048DDE702B9FFDEB2FA82F2002A40F0CF
:108390008F80491B4FEA154E1FFA85F80127B1FB64
:1083A000FEFC230C0EFB1C1143EA014308FB0CF1FD
:1083B000994207D9EB180CF1FF3002D2994200F232
:1083C000CD808446591AA3B2B1FBFEF00EFB101407
:1083D00043EA044408FB00F8A04507D92C1900F132
:1083E000FF3302D2A04500F2B6801846A4EB080481
:1083F00040EA0C409FE7C7F1200CBB4022FA0CFE7C
:108400004EEA030E01FA07F420FA0CF521FA0CF3F8
:108410004FEA1E482543B3FBF8F92C0C08FB19332F
:108420001FFA8EFA44EA034309FB0AF49C4202FA5B
:1084300007F200FA07F10BD91EEB030309F1FF3035
:1084400080F087809C4240F28480A9F10209734445
:108450001B1BADB2B3FBF8F008FB103345EA034435
:1084600000FB0AFAA24508D91EEB040400F1FF3311
:108470006BD2A24569D90238744440EA0940A0FB96
:108480000289A4EB0A044C45C2464B4654D351D052
:10849000002E69D0B1EB0A0564EB030404FA0CFC6E
:1084A000FD40FC404CEA0505C6E90054002747E7BB
:1084B000C2F1200320FA03F7954001FA02F021FAF5
:1084C00003F34FEA154E3843010CB3FBFEF71FFAD6
:1084D00085F80EFB173341EA034107FB08F38B4293
:1084E00004FA02F407D9691807F1FF3C2FD28B4236
:1084F0002DD9023F2944CB1A81B2B3FBFEF00EFB0B
:10850000103341EA034100FB08F38B4207D9691895
:1085100000F1FF3C17D28B4215D902382944C91A01
:1085200040EA07473BE73746304609E70746E7E6B4
:108530001846FBE64145ABD2B8EB020A69EB0E02E6
:1085400001381346A4E76046E9E7184695E7674611
:10855000D1E781467CE702382C4447E7ACF1020CB6
:108560002B442FE7384608E73746E9E6704700BF57
:1085700010B58AB0002405940694079408940994D1
:10858000204BDA6C42F00402DA64DA6C02F0040286
:108590000192019ADA6C42F08002DA64DA6C02F03D
:1085A00080020292029ADA6C42F00102DA64DA6C1A
:1085B00002F001020392039ADA6C42F00202DA64DA
:1085C000DB6C03F002030493049B224620214FF04E
:1085D000904003F0E1FA4FF4005305930A4B0693E1
:1085E000079405A9094803F0F3F920230593012313
:1085F00006930794089405A94FF0904003F0E8F91A
:108600000AB010BD00100240000021100008004810
:1086100008B50948094B03604FF4E1334360002378
:108620008360C36003610C2242618361C3610362A2
:10863000436203F0E8FE08BD6004002000440040EF
:10864000F0B5B9B04422002127A804F034FE00247C
:1086500022942394249425942694882221466846C3
:1086600004F029FE03F09EFA214AD2F8903023F05C
:108670001803C2F8903014232793012529952D95CE
:108680002E9460232F930226319632953395102332
:108690003493072735973696379627A802F05CF86B
:1086A0000F2322930323239324942594269429466D
:1086B00022A802F06DFB42F2020300930F944FF0E8
:1086C00080631B93019502951823039304970596E5
:1086D00006964FF480130793684602F08DFD4FF421
:1086E000007003F06FFA02F0AFFF39B0F0BD00BFC9
:1086F0000010024008B501F051FF0A4B0A4A9A6087
:1087000062B6FFF79DFFFFF733FFFFF781FF00F031
:1087100013F8642316220549054803F0D2FD00F042
:1087200053FCFEE700ED00E00080000808DB0008D5
:10873000600400207047000008B500220F4910486F
:1087400003F0B6FE70B90F490D4803F0C8FE60B9DA
:108750000D490B4804F00AFD50B9094803F0C6FE64
:1087600048B908BDFFF7E6FFEDE7FFF7E3FFEFE7E6
:10877000FFF7E0FFF1E7FFF7DDFFF2E70000002081
:10878000E00400209C0000206000002008B5FFF7F6
:1087900057FF08BD10B588B00023039304930593D9
:1087A000069307930368B3F1A04F01D008B010BD42
:1087B0001F4CE36C43F00103E364E36C03F001033B
:1087C0000093009B4FF4C0530393022304930323AD
:1087D00006930A23079303A94FF0904003F0F8F89B
:1087E000E36C43F48053E364E36C03F4805301933C
:1087F000019BA36D13F0805F17D1A36D43F08053ED
:10880000A365A36D03F080530293029B03F022FA49
:10881000A36D23F08053A36500221146432003F08B
:1088200033FA432003F064FAC0E703F013FAF3E7E6
:108830000010024008B500F57171D0F8040403F08F
:108840006EFE08BD08B5C1EBC10293000344D3F826
:108850000822D0F8040403F08FFE08BD08B5C1EB70
:10886000C102930003449A6CD0F8040403F0CDFED7
:1088700008BD08B5D0F8040403F06FFF08BD10B5BB
:108880000446C368022B01D0FFF754FF0121D4F83E
:10889000040403F04BFFD4F8040403F01FFF10BDE1
:1088A00010B504460268D2F8003E43F00103C2F856
:1088B000003ED0F8040403F03CFF236A23B1034ACE
:1088C000136943F00603136110BD00BF00ED00E023
:1088D00010B504460268D2F8003E23F00103C2F846
:1088E000003E036A23B9D4F8040403F02BFF10BD43
:1088F000034A136923F006031361FFF747FFF2E70A
:1089000000ED00E008B5D0F8040403F036FF08BD20
:1089100008B5D0F8040403F02EFF08BD08B5D0F860
:10892000040403F02CFF08BD08B5D0F8040403F0DC
:1089300028FF08BD03780BB10020704710B503462F
:108940001548C0F80434C3F8C0024FF0A0430360D8
:10895000062343600223C36083610023C361036273
:10896000436283620363C36200F02CFC80B90A4C4B
:108970008021204601F0DFF840220021204601F04E
:10898000B6F880220121204601F0B1F8002010BD88
:10899000FFF7D0FEEBE700BFA407002008B5D0F832
:1089A000C00200F0A7FC18B1022803D0022008BDC5
:1089B0000020FCE70120FAE710B51C4613462246CA
:1089C000D0F8C00200F05AFF18B1022803D00220EC
:1089D00010BD0020FCE70120FAE708B5D0F8C0027E
:1089E00000F08DFF18B1022803D0022008BD00203E
:1089F000FCE70120FAE708B5D0F8C00201F000F862
:108A000018B1022803D0022008BD0020FCE7012095
:108A1000FAE708B5D0F8C00201F032F818B1022820
:108A200003D0022008BD0020FCE70120FAE7D0F8BF
:108A3000C03211F0800F08D101F07F01C1EBC101FC
:108A40008A00134493F8FE01704701F07F01C1EBE7
:108A5000C1018A00134493F83E00704708B5D0F86E
:108A6000C00200F0F7FE18B1022803D0022008BDB2
:108A70000020FCE70120FAE708B5D0F8C00200F0BA
:108A8000A0FF18B1022803D0022008BD0020FCE797
:108A90000120FAE708B5D0F8C00200F067FF18B16E
:108AA000022803D0022008BD0020FCE70120FAE7DD
:108AB00008B5D0F8C00200F07BFF08BD10B5044631
:108AC00011B1012916D010BD036A5BB92268D2F832
:108AD000003E23F00103C2F8003ED4F8040403F082
:108AE00031FEF0E7FFF752FE0C4A136923F006034C
:108AF0001361EBE70268D2F8003E43F00103C2F8CD
:108B0000003ED0F8040403F014FE236A002BDAD0F0
:108B1000024A136943F006031361D4E700ED00E055
:108B2000004870472C0200207047000012230B8081
:108B3000004870472C00002004230B800048704739
:108B4000400000200C230B800048704720000020CC
:108B50000023934216D230B40BE0373401F81340AF
:108B600000015C00013400250D550133DBB2934256
:108B700006D2040F092CF0D8303401F81340EFE787
:108B800030BC70477047000038B50A4B1868043392
:108B90001C6804331B68C01800D138BD064D08227C
:108BA000A91CFFF7D5FF042205F112012046FFF7AB
:108BB000CFFFF2E79075FF1F4400002008B51A238D
:108BC0000B80FFF7E1FF014808BD00BF4400002013
:108BD00008B50A4628B10549054804F01BF90348C1
:108BE00008BD0249024804F015F9F8E7AC0B002073
:108BF00050DB000810B5044C0A462146034804F037
:108C000009F9204610BD00BFAC0B00203CDB00087A
:108C100008B50A4628B10549054804F0FBF80348A1
:108C200008BD0249024804F0F5F8F8E7AC0B002053
:108C300020DB000808B50A4628B10549054804F0BC
:108C4000E9F8034808BD0249024804F0E3F8F8E7F0
:108C5000AC0B00202CDB0008002070470020704780
:108C600010B5064C00220649204604F086FA054954
:108C7000204604F08AFA002010BD00BFE004002066
:108C80002C1600202C0E0020094BD3F8B832D3F854
:108C900014320BB10120704710B50A460146044C4E
:108CA000204604F06AFA204604F075FA10BD00BFB1
:108CB000E00400202DE9F84381460F46002416E029
:108CC0004F4D2B684F4E504AD25C5049304604F00D
:108CD000FBFA6423022231464D4803F0F2FA2B6876
:108CE00001332B603A68531E434513D001343B686F
:108CF000A046A34279D9424B1B6819F80410424A96
:108D0000D154002CDCD1642302224249404803F0B4
:108D1000D8FAD5E74049304604F0D6FA6423042255
:108D200031463B4803F0CDFA3C4B1B78E3B90722B0
:108D30003B49354804F0B0FA38B10021304B196096
:108D40008022314804F0B7FAD0E70123334A137088
:108D5000344A35491160354A13706423102234496E
:108D60002B4803F0AEFAE8E70C223249264804F01B
:108D700093FA88B164230E222F49254803F0A1FA03
:108D80003968214800F06AF82C4B187040BB182154
:108D90002B48FFF779FFD0E7204B00221A70214BB8
:108DA000214A1A60214B01221A706423102225499E
:108DB000174803F086FA14212348FFF765FF1A4885
:108DC000002100F0C5F8BFF34F8F2049CA6802F4B4
:108DD000E0621F4B1343CB60BFF34F8F00BFFDE733
:108DE00015211C48FFF750FFA7E71B4C49462046BA
:108DF00004F0CBF9204604F0E8F90020BDE8F88340
:108E00004C040020301E0020AC0D002068DB000860
:108E100060040020DCDB000870DB00085004002048
:108E200078DB0008381E0020000008082C1E0020F7
:108E300080DB000894DB0008D0DB00083C1E00202B
:108E4000E0DB0008A4DB0008B8DB000800ED00E070
:108E50000400FA05FCDB0008E0040020F0B599B03E
:108E600007460E4600238DF85F30139302221492BA
:108E70001593F023169302F019FC2E4B1B785BB967
:108E800064230A222C492D4803F01BFA9DF85F3019
:108E9000002B43D1002410E0694613A802F01AFD0C
:108EA0008DF85F00642308222549244803F009FA5D
:108EB000204B00221A70E3E70134B4EBD60F2DDA11
:108EC0001E4D64230F2201A9284603F0FAF907EB8F
:108ED000C40211AB1068516803C30246129B1949C2
:108EE0000968002002F036FC8DF85F006423082238
:108EF00011A9284603F0E5F9642301221249284606
:108F000003F0DFF99DF85F3043B99DF85F30002B27
:108F1000D2D10C4A136808331360CDE702F0DEFBB0
:108F2000642301220949054803F0CBF99DF85F004D
:108F300019B0F0BD2C1E002034DC000860040020B5
:108F400028DC0008381E002040DC000810DC000887
:108F5000D0B586B006460F4600238DF81730019332
:108F600002230293FE2303930123049302F09EFB4A
:108F7000694601A802F0AEFC8DF817000E4C642380
:108F800014220E49204603F09CF964230A220C495E
:108F9000204603F096F99DF817301BB102F09EFBB6
:108FA00006B0D0BD32463B460649002002F0D2FB57
:108FB0008DF81700F2E700BF600400201CDC0008F9
:108FC00034DC000800F00F0830B589B000240494A8
:108FD00004E00134079BB3F1FF3F1ED0049B03F173
:108FE000006303F57F231B680793079BB3F1FF3FE3
:108FF000EFD0079A08AB03EB840343F80C2C0C4921
:10900000684604F061F964230A226946094803F0BE
:1090100058F9049B04330493DBE70022069B059870
:10902000141843F100052046294609B030BD00BFA1
:1090300014DC0008600400207047FEE7FEE7FEE74E
:10904000FEE770477047704708B501F0BDFA08BDEC
:1090500008B5024800F0A6F908BD00BFA40700202B
:1090600082B00A4B1A6E42F001021A661A6E02F0C2
:1090700001020092009A9A6D42F080529A659B6DAF
:1090800003F080530193019B02B07047001002402F
:1090900000B589B0002303930493059306930793C7
:1090A0000268144B9A4202D009B05DF804FB03F544
:1090B000E6339A6D42F400329A659A6D02F40032FA
:1090C0000192019ADA6C42F00102DA64DB6C03F07F
:1090D00001030293029B0C230393022304930323B3
:1090E00006930723079303A94FF0904002F070FC0A
:1090F000DAE700BF004400402DE9F0470768CA00E6
:10910000521A930003445A6D1B6D9A4255D8B846C3
:109110009B1AC1EBC104A2000244526C9A4200D3D4
:109120001A460C46064602F1030A4FEA9A0A14E070
:1091300009F1030A4FEA9A0AE3001B1B9D0035441C
:109140001FFA89F3E2B2A96C384601F01BF8AB6C48
:109150004B44AB646B6D4B446B6508EB441303F5F8
:1091600010639B699BB2534513D3E3001B1B9A000A
:109170003244516D136D99420BD253B15B1AC4EB5B
:10918000C4018A003244D2F844909945D0D399461C
:10919000CEE7E3001B1B98000644326D736D9A42C4
:1091A0000ED804F00F040121A140D7F8344824EA76
:1091B0000104C7F83448002000E00120BDE8F08732
:1091C0000020FBE7F0B58BB0002800F0918004464A
:1091D000056890F8BD3323B3032384F8BD33EB6BEC
:1091E00013F4807F01D100232361206800F08EFDFD
:1091F000254655F8107B6E460FCD0FC60FCD0FC616
:1092000095E8030086E80300231D0ECB384600F0E6
:10921000C7FC58B1022384F8BD33012528460BB0A2
:10922000F0BD80F8BC33FFF7B5FAD5E70021206820
:1092300000F072FD002315E0D900C81A8200224414
:10924000012082F83D0082F83C30A2F84230002034
:1092500082F83F0050649064CA1A91002144086566
:109260000133DBB26568AB42E6D3002315E0D800DA
:10927000C11A8A002244002182F8FD1182F8FC31D3
:1092800082F8FF11C2F80412C2F80812C21A900044
:109290002044C0F810120133DBB29D42E7D82546C6
:1092A00055F8107B6E460FCD0FC60FCD0FC695E853
:1092B000030086E80300231D0ECB384600F072FD44
:1092C000054660B9002384F83830012384F8BD33A3
:1092D000636A012B08D0206801F0C5F89EE70223DD
:1092E00084F8BD33012599E7204600F028FCF2E719
:1092F000012593E7026890F8BC33012B16D010B516
:10930000012380F8BC33836A012B0AD0044600682D
:1093100001F09DF8206800F0F3FC002084F8BC0305
:1093200010BD936B43F480339363EFE702207047E3
:1093300038B503681C6C03EB411303F530639D687B
:109340000B4A94420FD115F4004F08D115F0200FAD
:1093500001D020229A60C9B2FFF774FA06E04FF4F8
:1093600000429A6002E0C9B2FFF76CFA002038BDF3
:109370000A31544F10B503681A6C03EB4111D1F850
:10938000084B074B9A4207D901F5306114F4004F9E
:1093900002D04FF400438B60FFF74CFA002010BD61
:1093A0000A30544F2DE9F84F04460568284601F06D
:1093B00097F808B1BDE8F88F2F460646206801F0FF
:1093C0005EF80028F6D0206801F059F810F0020F7E
:1093D00004D02268536903F002035361206801F04E
:1093E0004EF810F0100F15D02268936923F0100387
:1093F0009361D5F8208008F00F09C8F34343022B8E
:1094000000F08580062B00F0A5802268936943F068
:1094100010039361206801F032F810F4002F40F03F
:10942000AD80206801F02BF810F4802F40F0F1801F
:10943000206801F024F80028C0F24381206801F080
:109440001EF810F4006F0AD0D5F8083813F0010F99
:1094500040F051812268536903F40063536120682E
:1094600001F00DF810F0006F15D02268536903F079
:109470000063536194F8F433002B40F040810121E4
:1094800084F8F41323685B6DC3F38303C4F8F833E3
:109490002046FFF713FB206800F0F1FF10F4805F17
:1094A00040F03181206800F0EAFF10F4005F40F0E6
:1094B0008F81206800F0E3FF10F0080F40F0A081DA
:1094C000206800F0DCFF10F4801F40F0A2812068CB
:1094D00000F0D5FF10F4001F40F0A581206800F0D7
:1094E000CEFF10F0804F40F0A881206800F0C7FF49
:1094F00010F0040F3FF45EAF23685D6815F0040FB1
:1095000040F0A481226853682B43536052E747F62A
:10951000F07318EA030F3FF478AF4FEAC90BABEBD7
:1095200009034FEA830AA2444FEA1818C8F30A0253
:10953000DAF80812284600F00BFFC8F30A08DAF838
:1095400008324344CAF80832DAF814324344CAF8FD
:1095500014325AE7082204F57171284600F0F8FE2B
:10956000C8F30A184FEAC903A3EB09018A00224491
:10957000D2F814324344C2F8143246E7206800F0AF
:1095800082FF8046B14617E007EB49130122C3F87A
:10959000082B49462046FFF7CBFE1DE007EB491399
:1095A0000822C3F8082B49462046FFF7E3FE16E0E1
:1095B00009F101094FEA5808B8F1000F3FF431AF43
:1095C00018F0010FF4D05FFA89F1206800F06BFF0A
:1095D000824610F0010FD7D11AF0080FDED11AF031
:1095E000100F04D007EB49131022C3F8082B1AF010
:1095F000200F04D007EB49132022C3F8082B1AF4DC
:10960000005FD5D007EB49134FF40052C3F8082B85
:10961000CEE7206800F03FFF8046B1461AE009F02F
:109620000F03012101FA03F2D7F8343823EA0203C9
:10963000C7F8343807EB4913C3F8081959462046D0
:10964000FFF70CF917E01AF0800F35D109F1010985
:109650004FEA5808B8F1000F3FF4EAAE18F0010FD6
:10966000F4D05FFA89FB5946206800F025FF824656
:1096700010F0010FD3D11AF0080F04D007EB4913F3
:109680000822C3F808291AF0100F04D007EB491379
:109690001022C3F808291AF0400F04D007EB491331
:1096A0004022C3F808291AF0020FCCD007EB491367
:1096B0000222C3F80829C6E749462046FFF71CFDE9
:1096C000C4E7D5F8043823F00103C5F8043894F84A
:1096D000F433012B08D02046FFF7FAF822685369CB
:1096E00003F000435361A9E6002184F8F4132046F7
:1096F000FFF7E4F9F2E72046FFF7D2F8AAE62046A2
:10970000FFF7CEF8C7E605F50068D8F8043023F077
:109710000103C8F804301021206800F015FB20E098
:1097200007EB46134FF67F31C3F80819D3F8002929
:1097300022F40012C3F80029D3F8002942F0006295
:10974000C3F80029C3F8081BD3F8002B22F4001239
:10975000C3F8002BD3F8002B42F00062C3F8002BB3
:1097600001366368B342DBD8D8F81C3043F00113EC
:10977000C8F81C30236BE3B1D8F8843043F00B03F6
:10978000C8F88430D8F8443043F00B03C8F84430AC
:10979000D5F8003823F4FE63C5F8003804F571717C
:1097A000206800F0B1FE2268536903F480535361CE
:1097B00078E6D8F8143043F4005343F02B03C8F88C
:1097C0001430D8F8103043F00B03C8F81030DFE73E
:1097D000206800F089FE206800F098FBE0602568B2
:1097E00001F082FB227B0146284600F013FA204656
:1097F000FFF745F82268536903F40053536158E6B4
:109800002046FFF736F82268536903F008035361D6
:1098100056E600212046FFF77BF82268536903F4DF
:109820008013536153E600212046FFF76BF822684E
:10983000536903F40013536150E62046FFF76EF8B6
:109840002268536903F0804353614EE62046FFF7D8
:109850006BF857E690F8BC33012B0DD010B50446D9
:10986000012380F8BC3380F83810006800F0DFFD79
:10987000002084F8BC0310BD02207047F8B511F039
:10988000800F28D101F00F06F500AF1BBC00274662
:1098900004F5FC74044404343E460644002586F86E
:1098A000FD5101F00F012170A260E370627802B1F6
:1098B000E180022B1ED090F8BC33012B1DD0054651
:1098C000012380F8BC332146006800F02DFB002006
:1098D00085F8BC03F8BD01F00F06F500AF1BBC0016
:1098E00027463834044404343E460644012586F8AD
:1098F0003D50D6E700232371DDE70220EAE738B5C3
:1099000011F0800F21D101F00F05EA00541BA300D4
:109910001C4603F5FC73034404332546054400222A
:1099200085F8FD2101F00F01197090F8BC23012A80
:109930001AD00446012280F8BC231946006800F0C2
:109940003DFB002084F8BC0338BD01F00F04E200A9
:10995000151BAB001D463833034404332C46044426
:10996000012284F83D20DDE70220EDE7F8B501F0A3
:109970000F05EE00711B8C0004F5FC740444211DDE
:10998000771BBC000444C4F80822C4F8103200233A
:10999000C4F8143284F8FD3184F8FC5125B1006814
:1099A00000F002FC0020F8BD006800F075FBF9E74C
:1099B00001F00F01C1EBC1018B001844D0F8140273
:1099C0007047F8B501F00F05EE00711B8C003834BC
:1099D0000444211D771BBC000444A26423650023BA
:1099E0006365012384F83D3084F83C5025B100685C
:1099F00000F0DAFB0020F8BD006800F04DFBF9E74D
:109A000038B501F00F0543689D4235D811F0800F3D
:109A100020D1CA00541AA3001C4603F5FC7303446A
:109A2000043322460244002182F8FD1101229A707B
:109A30001D7090F8BC23012A20D00446012280F832
:109A4000BC231946006800F097FC7DB1002084F823
:109A5000BC0312E0EA00511B8B0019463833034463
:109A600004330144012281F83D20DFE704F57171E0
:109A7000206800F049FDE9E7012038BD0220FCE73D
:109A800010B501F00F0443689C422CD811F0800FF0
:109A90001DD1E3001A1B91000A4601F5FC71014437
:109AA00004310244002382F8FD3100238B700C70D6
:109AB00090F8BC33012B18D00446012380F8BC3346
:109AC000006800F086FC002084F8BC030CE0E30092
:109AD0001A1B91000A463831014404310244012323
:109AE00082F83D30E1E7012010BD0220FCE730B4F0
:109AF0000468606A29B10D46A36A00EB1340002395
:109B00000CE040EA0240A06212E003F1400104EBE5
:109B10008101496800EB11400133DBB2691E8B42C1
:109B2000F3D340EA024005F13F0104EB81014860B4
:109B3000002030BC7047036859620020704703461C
:109B400002680121C0F8FC13002083F8F403936934
:109B500043F000639361536D43F0805343F003037C
:109B600053657047002301330C4A934211D80269B0
:109B7000002AF8DA036943F001030361002301338B
:109B8000064A934207D8026912F0010FF7D100206C
:109B90007047032070470320704700BF400D03004B
:109BA00084B010B5044603A880E80E00089B012B82
:109BB0001CD1A36B23F48033A363E36823F48403F1
:109BC00023F04003E360E36823F44013E3600F9B5A
:109BD000012B06D02046FFF7C5FFBDE8104004B0BA
:109BE0007047E36843F48013E360F3E7E36843F00E
:109BF0004003E3602046FFF7B5FF0C9B23B1A36B46
:109C000023F48033A363E8E7A36B43F48033A363B7
:109C1000E3E70000022A0AD00921C26822F4705248
:109C2000C260C36843EA8123C360002070472A4BA7
:109C30000B442A4A93423FD9294B0B44294A934269
:109C40003CD9A1F57403A3F51053274A934237D9A1
:109C5000A1F18373A3F5E74302F5C332A032934227
:109C600030D9224B0B44224A93422DD9214B0B442D
:109C700002F5922202F57872934227D91E4B0B44CB
:109C800002F5C32202F52072934221D9A1F1B773E4
:109C9000A3F5585302F5B71202F55872934219D939
:109CA000164B0B4402F5122202F5F862934201D9D9
:109CB0000621B2E70721B0E70F21AEE70E21ACE79E
:109CC0000D21AAE70C21A8E70B21A6E70A21A4E7AA
:109CD0000921A2E70821A0E7405327FFFF340C0029
:109CE000401E1BFF3F420F007F4F120060B6E5FE93
:109CF0005FE3160000D3CEFEC05BB3FEE05459FE16
:109D0000836843F00103836000207047836823F079
:109D1000010383600020704708B5C36823F0C04387
:109D2000C360012909D069B9C36843F08043C360A7
:109D3000322000F05BFC002008BDC36843F00053F4
:109D4000C360F5E70120F7E7890141F020010161D7
:109D500000230133054A934205D8026912F0200F0F
:109D6000F7D1002070470320704700BF400D03006B
:109D70001023036100230133054A934205D8026989
:109D800012F0100FF7D1002070470320704700BF7A
:109D9000400D0300D0F800381943C0F80018002027
:109DA0007047000084B02DE9F041044607A880E820
:109DB0000E002546002306E003F1400204EB820278
:109DC0000021516001330E2BF6D9119B8BBBD4F8C7
:109DD000043843F00203C4F80438A36B23F40013DF
:109DE000A363236843F040032360236843F08003A8
:109DF00023600023C4F8003E04F50066D4F8003860
:109E0000C4F8003803212046FFF7C4FF1021204684
:109E1000FFF79AFF804608B14FF001082046FFF790
:109E2000A7FF08B14FF00108002333617361F361AC
:109E30000FE0A36B43F40013A363DAE7C3B94FF059
:109E40000060C2F8000900220A614FF67F328A6082
:109E500001330799994210D905EB431202F51061BD
:109E6000D2F800090028E9DB0020C2F80009EAE77F
:109E70004FF09040C2F80009E5E700230AE0BBB1CB
:109E80004FF09047C2F8007B002202614FF67F320C
:109E900082600133994210D905EB431202F530601C
:109EA000D2F8007B002FEADB0027C2F8007BEBE74B
:109EB0004FF00067C2F8007BE6E7336923F4807354
:109EC00033610023A3616FF080436361A36943F0B2
:109ED0001003A361A2690C4B1343A3610D9B1BB13B
:109EE000A36943F00803A361119B012B04D04046F2
:109EF000BDE8F04104B07047A36943F0804343F0EC
:109F00000403A361F3E700BF00383C80D0F80838B1
:109F100003F00603022B05D0062B01D00F2070475B
:109F2000022070470220704770B40B784A78012AEB
:109F300022D0D0F81C2803F00F060124B44042EAD6
:109F40000442C0F81C2800EB4310D0F8003B13F487
:109F5000004F0ED1D0F8003B8A68C2F30A02C978DC
:109F600042EA8142134343F0805343F40043C0F874
:109F7000003B002070BC7047D0F81C4803F00F066F
:109F8000B24092B22243C0F81C2800EB4310D0F834
:109F9000002912F4004FECD1D0F800298C68C4F3EA
:109FA0000A04C97844EA814444EA8353134343F0E2
:109FB000805343F40043C0F80039DAE730B40B783B
:109FC0004A78012A24D000EB4313D3F8002B002A4F
:109FD00050DBD0F83C580A7802F00F02012404FA52
:109FE00002F225EA0242C0F83C28D0F81C28097881
:109FF00001F00F018C4022EA0444C0F81C48D3F859
:10A00000001B234A0A40C3F8002B002030BC7047D5
:10A0100000EB4313D3F80029002A1EDBD0F83C588C
:10A020000A7802F00F02012404FA02F292B225EA41
:10A030000202C0F83C28D0F81C28097801F00F0172
:10A040008C40A4B222EA0404C0F81C48D3F80019DA
:10A05000104A0A40C3F80029D7E7D3F8002942F094
:10A060000062C3F80029D3F8002942F08042C3F807
:10A070000029D3E7D3F8002B42F00062C3F8002B8D
:10A08000D3F8002B42F08042C3F8002BA1E700BFB9
:10A090000078F3EF007833EC0B784A78012A23D06C
:10A0A00000EB431000F530631A69D20CD2041A6138
:10A0B0001A6922F0FF5222F4C0121A614A690AB1E9
:10A0C0008A684A611A6942F400221A611A69896829
:10A0D000C1F312010A431A61D0F8003B43F0044374
:10A0E000C0F8003B0020704730B44A6962BB00EB07
:10A0F0004312D2F8104924F0FF5424F4C014C2F8DB
:10A100001049D2F8104944F40024C2F81049D2F89A
:10A110001049E40CE404C2F8104900EB4313D3F8EF
:10A12000002942F00442C3F800294B694BB1D0F832
:10A1300034380A7802F00F0101228A401343C0F834
:10A140003438002030BC704700EB431202F5106237
:10A150001469E40CE4041461146924F0FF5424F439
:10A16000C01414614D698C68A54200D94C61146912
:10A1700044F40024146114694D69C5F312052C439D
:10A180001461CAE770B403339B08002507E000EBB5
:10A19000023404F5805451F8046B266001359D4269
:10A1A000F5D3002070BC704770B50B784A78012A4F
:10A1B00027D000EB431303F530621469E40CE40488
:10A1C0001461146924F0FF5424F4C01414614C6920
:10A1D000002C40F0938014698D68C5F312052C4360
:10A1E0001461146944F400241461CA78012A00F04F
:10A1F0009A80D3F8002B42F00442C3F8002B0020D1
:10A2000070BD4A6972BB00EB4312D2F8104924F0CA
:10A21000FF5424F4C014C2F81049D2F8104944F491
:10A220000024C2F81049D2F81049E40CE404C2F842
:10A23000104900EB4313D3F8002942F00442C3F85D
:10A240000029CA78012A41D04B69002BD7D0D0F819
:10A2500034380A7802F00F0101228A401343C0F813
:10A260003438CCE700EB4312D2F81049E40CE40494
:10A27000C2F81049D2F8104924F0FF5424F4C01455
:10A28000C2F81049D2F810594C698E683444013C28
:10A29000B4FBF6F42D4E06EAC4442C43C2F8104930
:10A2A000D2F810494D69C5F312052C43C2F8104984
:10A2B00002F51062CC78012CBBD1146924F0C044A3
:10A2C0001461146944F000541461B2E7D0F808280E
:10A2D00012F4807F0BD1D3F8002942F00052C3F86A
:10A2E00000298B8A0A78C968FFF74CFF87E7D3F803
:10A2F000002942F08052C3F80029F2E78D682C440F
:10A30000013CB4FBF5F41569104E06EAC44635432A
:10A31000156116698D68A4B205FB04F4C4F3120438
:10A320003443146161E7D0F8082812F4807F06D125
:10A33000D3F8002B42F00052C3F8002B59E7D3F8B2
:10A34000002B42F08052C3F8002B52E70000F81FA8
:10A3500003329208002393420CD210B400F58054CB
:10A36000246841F8044B01339342F7D308465DF863
:10A37000044B7047084670470B784A78012A14D07E
:10A3800000EB4310D0F8002B002A06DB2BB1D0F8ED
:10A39000003B23F08043C0F8003BD0F8003B43F47F
:10A3A0000013C0F8003B0020704700EB4310D0F8CA
:10A3B0000029002A06DB2BB1D0F8003923F08043B6
:10A3C000C0F80039D0F8003943F40013C0F8003960
:10A3D000E9E70B784A78012A0ED000EB4310D0F859
:10A3E000003B23F40013C0F8003BCB78023BDBB208
:10A3F000012B15D90020704700EB4310D0F800392D
:10A4000023F40013C0F80039CB78023BDBB2012BF8
:10A41000F0D8D0F8003943F08053C0F80039E9E7AC
:10A42000D0F8003B43F08053C0F8003BE2E7D0F89F
:10A43000003823F4FE63C0F80038D0F80038090172
:10A4400001F4FE610B43C0F800380020704708B5E6
:10A45000D0F8043823F00203C0F80438032000F0D9
:10A46000C5F8002008BD08B5D0F8043843F0020351
:10A47000C0F80438032000F0B9F8002008BD426994
:10A48000806910407047D0F8183800F50060C06946
:10A490001840000C7047D0F8183800F50060C0690B
:10A4A000184080B2704700EB4111D1F8082B00F53D
:10A4B000006040691040704710B4D0F81048D0F8E0
:10A4C000343801F00F02D340DB01DBB2234300EB51
:10A4D000411000F51060806818405DF8044B70472B
:10A4E000406900F001007047D0F8003923F4FF63A1
:10A4F00023F00703C0F80039D0F8043843F4807320
:10A50000C0F8043800207047026C0F4B9A4203D900
:10A51000D0F8003B002B14DB0023C0F8103BD0F830
:10A52000103B43F40023C0F8103BD0F8103B43F03D
:10A530001803C0F8103BD0F8103B43F0C043C0F8FC
:10A54000103B0020704700BF0A30544F104B1B686F
:10A550000BB90120704710B504464FF47A70B0FB78
:10A56000F3F30C4A1068B0FBF3F001F0CFFB68B9CD
:10A570000F2C01D901200AE0002221464FF0FF30C4
:10A5800001F082FB044B1C60002000E0012010BDA4
:10A5900070000020980000207400002010B5094AC7
:10A5A000136843F480731360032001F05BFB002009
:10A5B000FFF7CCFF10B10124204610BD0446FEF782
:10A5C0004FFDF9E700200240034A13680349096878
:10A5D0000B441360704700BF401E00207000002035
:10A5E000014B1868704700BF401E002038B5044674
:10A5F000FFF7F6FF0546B4F1FF3F02D0044B1B689E
:10A600001C44FFF7EDFF401BA042FAD338BD00BF4A
:10A610007000002030B583B00546204B9B6D13F0D1
:10A62000805F0BD001F0C6FAB0F5007F17D0802D07
:10A630001FD82DD0702D2DD000211BE0174CA36DFD
:10A6400043F08053A365A36D03F080530193019BF6
:10A6500001F0B0FAA36D23F08053A365E4E7802DE9
:10A6600003D9A02D03D9022104E0002102E0012139
:10A6700000E003210A4A136823F007030B43136029
:10A68000136803F007038B4206D0012003B030BDEE
:10A690000221EFE70121EDE70020F7E7001002407B
:10A6A00000200240284A9368D26802F0030213F0A7
:10A6B0000C030AD00C2B06D0042B1FD0082B20D063
:10A6C0000020024610E0012AF6D11F4A126812F05B
:10A6D000080F0CD11C4AD2F89420C2F303221B4964
:10A6E00051F8222043B100200C2B0DD07047164AA0
:10A6F0001268C2F30312F2E71046F5E7144800228D
:10A70000F2E714480022EFE70F4BDB6803F0030386
:10A71000022B15D0032B15D00B4BD868C0F30210B9
:10A720000130D968C1F3062102FB01F2B2FBF0F25D
:10A73000D868C0F3416001304000B2FBF0F0D5E7CB
:10A74000034AE9E7034AE7E7001002405CDC00083F
:10A750000024F40000127A00002800F00083F0B515
:10A7600083B00446AF4B9D6805F00C05DE6806F02B
:10A770000306036813F0100F5BD0E5B10C2D18D061
:10A78000A369002B00F0BC80A64A136843F00103C4
:10A790001360FFF725FF0746A24B1B6813F0020F5B
:10A7A00040F09B80FFF71CFFC01B0228F4D9032355
:10A7B000E1E2012EE4D19B4B1B6813F0020F03D0A2
:10A7C000A369002B00F0CE82206A964B1B6813F021
:10A7D000080F5CD0934B1B6803F0F00398425DD8E0
:10A7E000904B1A6842F008021A601A6822F0F002D0
:10A7F000216A0A431A605A6822F47F42E16942EAF8
:10A8000001225A60002D61D0FFF74CFF854B9B68F9
:10A81000C3F30313844AD35C03F01F03D840834B74
:10A820001860834B1868FFF791FE0346002840F03C
:10A83000A282236813F0010F00F08180082D75D0EB
:10A840000C2D71D06368B3F5803F00F09780B3F5AD
:10A85000A02F00F09980734B1A6822F480321A609E
:10A860001A6822F480221A606368002B00F0998035
:10A87000FFF7B6FE07466B4B1B6813F4003F5ED133
:10A88000FFF7AEFEC01B6428F5D9032373E2654BC6
:10A89000D3F894301B0903F0F0039FE7FFF7BAFEEB
:10A8A000002840F061825F4B1A6842F008021A608B
:10A8B0001A6822F0F002216A0A431A605A6822F4E8
:10A8C0007F42E16942EA01225A609DE7206AFFF770
:10A8D000A1FE002898D001234DE2524B1A6842F0A5
:10A8E00008021A601A6822F0F002216A0A431A600C
:10A8F0005A6822F47F42E16942EA01225A6098E7ED
:10A90000484A136823F001031360FFF769FE074606
:10A91000444B1B6813F0020F8BD0FFF761FEC01B86
:10A920000228F5D9032326E2032E8BD13D4B1B6869
:10A9300013F4003F03D06368002B00F017822368F4
:10A9400013F0020F4FD0042D3CD00C2D38D0E3680B
:10A95000002B78D0334A136843F480731360FFF7F9
:10A960003FFE06462F4B1B6813F4806F62D1FFF742
:10A9700037FE801B0228F5D90323FCE1294A13681E
:10A9800043F4803313606FE703F18043A3F53C3356
:10A990001A6842F480221A601A6842F480321A60FF
:10A9A00062E7FFF71DFE07461E4B1B6813F4003FCE
:10A9B000C5D0FFF715FEC01B6428F5D90323DAE1E3
:10A9C000022EC4D1174B1B6813F4806F03D0E368C9
:10A9D000002B00F0CD81134A536823F0F85321690E
:10A9E00043EA01635360236813F0080F56D063698C
:10A9F000002B3CD00B4AD2F8943043F00103C2F84C
:10AA00009430FFF7EDFD0646064BD3F8943013F073
:10AA1000020F43D1FFF7E4FD801B0228F4D9032382
:10AA2000A9E100BF0010024044DC000898000020AB
:10AA300074000020B84A536823F0F853216943EAB0
:10AA400001635360CFE7B44A136823F48073136043
:10AA5000FFF7C6FD0646B04B1B6813F4806FC2D0EB
:10AA6000FFF7BEFD801B0228F5D9032383E1AA4A24
:10AA7000D2F8943023F00103C2F89430FFF7B0FD10
:10AA80000646A54BD3F8943013F0020F06D0FFF71B
:10AA9000A7FD801B0228F4D903236CE1236813F07F
:10AAA000040F7AD09C4B9B6D13F0805F0BD19A4BB7
:10AAB0009A6D42F080529A659B6D03F0805301932A
:10AAC000019B012600E00026944B1B6813F4807F55
:10AAD00026D0A368012B37D0052B3DD08E4BD3F861
:10AAE000902022F00102C3F89020D3F8902022F0A9
:10AAF0000402C3F89020A368002B3BD0FFF770FD41
:10AB00000746854BD3F8903013F0020F44D1FFF77E
:10AB100067FDC01B41F288339842F2D903232AE132
:10AB20007E4A136843F480731360FFF759FD0746AC
:10AB30007A4B1B6813F4807FCBD1FFF751FDC01B0C
:10AB40000228F5D9032316E1734AD2F8903043F076
:10AB50000103C2F89030CEE76F4BD3F8902042F05B
:10AB60000402C3F89020D3F8902042F00102C3F809
:10AB70009020C0E7FFF734FD0746674BD3F89030CD
:10AB800013F0020F08D0FFF72BFDC01B41F28833F2
:10AB90009842F2D90323EEE06EBBA36A002B00F0CB
:10ABA000E980022B2DD00C2D00F0EE805A4B1A6854
:10ABB00022F080721A601B6813F0205F04D1564A9D
:10ABC000D36823F00303D360534AD36823F0887318
:10ABD00023F48033D360FFF703FD04464E4B1B681C
:10ABE00013F0007F00F0B980FFF7FAFC001B022889
:10ABF000F4D90323BFE0484A936D23F08053936553
:10AC0000CBE7454BDB6803F00301E26A91420FD0CA
:10AC10000C2D00F0B380404B1B6813F0806F40F0A8
:10AC2000AF803D4B1B6813F0805F2DD00123A2E065
:10AC300003F07002216B0139B2EB011FE8D103F47C
:10AC4000FE42616BB2EB012FE2D103F40031A26B43
:10AC5000073A18BF01229142DAD103F4C001E26B36
:10AC60005208013AB1EB425FD2D103F0C063226CCB
:10AC70005208013AB3EB426FCAD1274B1B6813F05D
:10AC8000007F51D0002376E0234A136823F08073BD
:10AC90001360FFF7A5FC05461F4B1B6813F0007FF0
:10ACA00006D0FFF79DFC401B0228F5D9032362E084
:10ACB000194AD3681A491940E36A206B013843EAFC
:10ACC0000013606B43EA0023E06B4008013843EA5D
:10ACD0004053206C4008013843EA4063A06B0009F0
:10ACE00043EA40430B43D360136843F0807313601F
:10ACF000D36843F08073D360FFF772FC0446064BC1
:10AD00001B6813F0007F0DD1FFF76AFC001B0228BF
:10AD1000F5D903232FE000BF00100240007000406F
:10AD20008C809DF9002326E0184B1A6842F080724F
:10AD30001A60DA6842F08072DA60FFF751FC04466C
:10AD400004E0FFF74DFC001B02281BD80F4B1B68CB
:10AD500013F0007FF5D000230DE000230BE001236A
:10AD600018467047012306E0012304E0012302E0B6
:10AD7000012300E00023184603B0F0BD0123FAE7E9
:10AD80000123F8E70323F6E70123F4E7001002406C
:10AD9000002800F09B8070B504464E4B1B6803F002
:10ADA00007038B420CD24B4A136823F007030B4373
:10ADB0001360136803F007038B4201D0012070BDBC
:10ADC0000D46236813F0010F39D06368032B09D0B7
:10ADD000022B26D063BB404A126812F0020F06D144
:10ADE0000120ECE73C4A126812F0007F70D03A492B
:10ADF0008A6822F0030213438B60FFF7F1FB0646DB
:10AE0000354B9B6803F00C036268B3EB820F16D0DE
:10AE1000FFF7E6FB801B41F288339842F0D903200C
:10AE2000CDE72D4A126812F4003FE0D10120C6E7B9
:10AE3000294A126812F4806FD9D10120BFE7236834
:10AE400013F0020F06D0244A936823F0F003A168A0
:10AE50000B4393601F4B1B6803F00703AB420CD9F5
:10AE60001C4A136823F007032B431360136803F095
:10AE70000703AB4201D00120A1E7236813F0040FC0
:10AE800006D0154A936823F4E063E1680B439360AE
:10AE9000236813F0080F07D00F4A936823F4605318
:10AEA000216943EAC1039360FFF7FCFB0A4B9B68EF
:10AEB000C3F30313094AD35C03F01F03D840084BC4
:10AEC0001860084B1868FFF741FB78E701207047CE
:10AED000012074E7002002400010024044DC00081A
:10AEE0009800002074000020014B1868704700BFD4
:10AEF0009800002008B5FFF7F7FF054B9B68C3F3E8
:10AF00000223044AD35C03F01F03D84008BD00BFEE
:10AF10000010024054DC000808B5FFF7E5FF054BC0
:10AF20009B68C3F3C223044AD35C03F01F03D840D9
:10AF300008BD00BF0010024054DC0008F8B55A4BB1
:10AF4000DB6813F0030F18D0574BDB6803F00303E3
:10AF50000268934202D001252846F8BD002A00F07D
:10AF6000A080514BDB68C3F3021301334268934264
:10AF700001D00125F0E700251AE00368022B59D023
:10AF8000032B5ED0012B01D001250FE0464A126849
:10AF900012F0020F61D0444DEA6822F07302446857
:10AFA000013C43EA04131343EB600025002DD3D189
:10AFB0000F4604463C4A136823F080631360FFF792
:10AFC0000FFB0646384B1B6813F0006F05D0FFF7E8
:10AFD00007FB801B0228F5D90325002DBCD1002FCB
:10AFE0003DD131490B6923F41F3323F44073A0682A
:10AFF000E2681209520442EA002213430B612A4A12
:10B00000136843F080631360FFF7EAFA0646264BA5
:10B010001B6813F0006F05D1FFF7E2FA801B0228CE
:10B02000F5D90325002D97D11F4A1369A1690B4358
:10B03000136191E71C4A126812F4806FABD10125AD
:10B04000B4E7194A126812F4003FA4D1164A1268F4
:10B0500012F4802F9FD10125A8E70125A6E7012F33
:10B060000FD01148026922F0C06222F4FE42A168AA
:10B0700063695B08013B5B0643EA012313430361F9
:10B08000BDE70948026922F4C00222F4FE42A16829
:10B0900023695B08013B5B0543EA0123134303611A
:10B0A000ADE7012558E700BF00100240F8B5514B4D
:10B0B000DB6813F0030F18D04E4BDB6803F003037B
:10B0C0000268934202D001252846F8BD002A00F00C
:10B0D0008E80484BDB68C3F302130133426893420E
:10B0E00001D00125F0E700251AE00368022B59D0B2
:10B0F000032B5ED0012B01D001250FE03D4A1268E1
:10B1000012F0020F61D03B4DEA6822F073024468EE
:10B11000013C43EA04131343EB600025002DD3D117
:10B120000F460446334A136823F080531360FFF739
:10B1300057FA06462F4B1B6813F0005F05D0FFF748
:10B140004FFA801B0228F5D90325002DBCD1002F12
:10B150003DD128494B6923F41F3323F44073A06881
:10B16000E2681209520442EA002213434B61214A69
:10B17000136843F080531360FFF732FA06461D4B05
:10B180001B6813F0005F05D1FFF72AFA801B022825
:10B19000F5D90325002D97D1164A536961690B43F0
:10B1A000536191E7134A126812F4806FABD1012505
:10B1B000B4E7104A126812F4003FA4D10D4A126895
:10B1C00012F4802F9FD10125A8E70125A6E70948A1
:10B1D000426922F0C06222F4FE42A16823695B0842
:10B1E000013B5B0643EA012313434361BFE70125AB
:10B1F0006AE700BF001002402DE9F04182B004462A
:10B20000036813F4006F2FD0436EB3F5800F25D081
:10B2100008D9B3F5000F10D0B3F5400F40F0998076
:10B22000002610E0002B40F0948000210430FFF74E
:10B2300085FE06463EB1374618E05E4AD36843F4C1
:10B240008033D36000265B4AD2F8883023F4400371
:10B25000616E0B43C2F88830002707E000212030E0
:10B26000FFF724FF0646E5E700273E46236813F470
:10B27000805F15D0A36EB3F1807F7AD06CD9B3F123
:10B28000007F70D0B3F1407F7AD1002E7BD1494A44
:10B29000D2F8883023F04073A16E0B43C2F8883097
:10B2A000236813F4003F00F08E80424B9B6D13F037
:10B2B000805F6AD13F4B9A6D42F080529A659B6DD8
:10B2C00003F080530193019B4FF001083A4A136841
:10B2D00043F480731360FFF783F90546364B1B6810
:10B2E00013F4807F05D1FFF77BF9401B0228F5D9C5
:10B2F0000326002E62D12F4BD3F8903013F4407305
:10B3000016D0D4F884209A4212D02A4AD2F890302B
:10B3100023F44073D2F8901041F48031C2F89010B9
:10B32000D2F8901021F48031C2F89010C2F8903019
:10B3300013F0010F2CD1002E40F043811D4AD2F8AA
:10B34000903023F44073D4F884100B43C2F890304B
:10B3500035E001273E4689E793B90021201DFFF71C
:10B36000EDFD064691E7134AD36843F48033D3607A
:10B370008BE7002104F12000FFF798FE064684E7E2
:10B3800001273E468CE737468AE74FF000089DE7E5
:10B39000FFF726F90546074BD3F8903013F0020F5C
:10B3A000C9D1FFF71DF9401B41F288339842F2D909
:10B3B0000326C0E700100240007000403746B8F195
:10B3C000000F40F00081236813F0010F08D09D4A60
:10B3D000D2F8883023F00303A16B0B43C2F8883006
:10B3E000236813F0020F08D0964AD2F8883023F071
:10B3F0000C03E16B0B43C2F88830236813F0040F91
:10B4000008D0904AD2F8883023F03003216C0B43E7
:10B41000C2F88830236813F0080F08D0894AD2F8A0
:10B42000883023F0C003616C0B43C2F88830236876
:10B4300013F0100F08D0834AD2F8883023F44073F9
:10B44000A16C0B43C2F88830236813F0200F08D09A
:10B450007C4AD2F8883023F44063E16C0B43C2F895
:10B460008830236813F4007F08D0764AD2F88830F9
:10B4700023F44023E16D0B43C2F88830236813F4B2
:10B48000806F08D06F4AD2F8883023F44013216EC1
:10B490000B43C2F88830236813F0400F08D0694A84
:10B4A000D2F8883023F44053216D0B43C2F8883022
:10B4B000236813F0800F08D0624AD2F8883023F452
:10B4C0004043616D0B43C2F88830236813F4807FDA
:10B4D00008D05C4AD2F8883023F44033A16D0B4386
:10B4E000C2F88830236813F4005F0FD0554AD2F8B1
:10B4F000883023F04063E16E0B43C2F88830E36E7E
:10B50000B3F1006F65D0B3F1806F67D0236813F497
:10B51000002F0FD04B4AD2F8883023F04063216FC0
:10B520000B43C2F88830236FB3F1006F5ED0B3F1E4
:10B53000806F60D0236813F4802F0FD0414AD2F877
:10B54000883023F04063616F0B43C2F88830636F2B
:10B55000B3F1006F57D0B3F1806F59D0236813F463
:10B56000804F0FD0374AD2F8883023F04053A16F74
:10B570000B43C2F88830A36FB3F1805F50D0B3F1B2
:10B58000005F55D0236813F4004F08D02D4AD2F83D
:10B59000883023F08043E16F0B43C2F88830236882
:10B5A00013F4803F09D0274AD2F8883023F00043B3
:10B5B000D4F880100B43C2F88830384602B0BDE89A
:10B5C000F0813746FBE61F4A936D23F08053936565
:10B5D000F9E6D36843F48013D36097E70121201D77
:10B5E000FFF7ACFC002891D007468FE7D36843F4FF
:10B5F0008013D3609EE70121201DFFF79FFC0028E8
:10B6000098D0074696E7D36843F48013D360A5E744
:10B610000121201DFFF792FC00289FD007469DE7DF
:10B620000221201DFFF78AFC0028ABD00746A9E7BE
:10B63000022104F12000FFF739FD0028A2D00746BF
:10B64000A0E700BF00100240024A136843F0040361
:10B65000136070470010024010B4064C616941F05D
:10B66000010161610260BFF36F8F43605DF8044BBD
:10B67000704700BF0020024010B40B4A536943F4E6
:10B6800080235361EFF3108472B6402351F8042BEA
:10B6900040F8042B013B13F0FF03F7D184F310882B
:10B6A0005DF8044B704700BF00200240094B5B6906
:10B6B000002B01DB00207047064B074A9A6002F11D
:10B6C00088329A605B69002B01DB00207047012003
:10B6D000704700BF0020024023016745034A5369B9
:10B6E00043F0004353610020704700BF0020024038
:10B6F00038B50446FEF774FF0546144B1B6913F476
:10B70000803F09D0B4F1FF3FF7D0FEF769FF401B3F
:10B71000A042F2D3032016E00C4B1B694CF2FA3224
:10B72000134009D1094B1B6913F0010F0CD0074BD3
:10B7300001221A61002006E005494A681A434A605E
:10B74000024A1361012038BD0020FCE700200240BE
:10B75000780000202DE9F041284C2478012C4AD0B3
:10B76000984617460D460446244B01221A704CF2A7
:10B770005030FFF7BDFF064608BB204B00225A6041
:10B780001F4B1B6813F4806F1FD01D4A136823F4EE
:10B7900080631360194B02221A77D4B1631E012B08
:10B7A0001ED900244CF25030FFF7A2FF064624B108
:10B7B000134A536923EA0404546100F05DF80F4B07
:10B7C00000221A703046BDE8F0810C4B00221A7737
:10B7D000E3E73A4643462846FFF73EFF0124E1E708
:10B7E00039462846FFF748FF022C01D00024D9E74C
:10B7F0004FF48024D6E70226E4E700BF780000205B
:10B800000020024010F0010F04D0094A536943F0B0
:10B810000403536110F0020F04D0054A536943F446
:10B8200000435361024A536943F4803353617047C4
:10B830000020024011F0010F16D10E4A536943F463
:10B84000006353610B4B5A6922F4FF62C00000F49D
:10B85000FF60104358615A6942F002025A615A6906
:10B8600042F480325A617047024A536923F40063FC
:10B870005361E7E700200240144B1B7FDBB2012B32
:10B8800001D0032B0CD1124A116841F40061116000
:10B89000116821F400611160116841F400711160B8
:10B8A000023BDBB2012B03D9084B00221A77704709
:10B8B000074B1A6842F480521A601A6822F48052C8
:10B8C0001A601A6842F480621A60EDE7780000207E
:10B8D00000200240F8B53C4B1B78012B71D00E467E
:10B8E0000446394B01221A704CF25030FFF700FF2A
:10B8F0000746002860D1344B00225A60334B1B6846
:10B9000013F4007F33D0314B1A6822F400721A60AE
:10B910001B6813F4806F26D02C4A136823F48063CD
:10B920001360294B03221A772368012B31D04FF083
:10B93000FF333360A568A368E2681344AB4239D98A
:10B9400061682846FFF776FF4CF25030FFF7D0FED3
:10B950001E4A536923F4FF6323F002035361074631
:10B9600038BB0135E7E7184B01221A77DCE7174BA4
:10B970001B6813F4806F08D0144A136823F48063A3
:10B980001360114B02221A77CEE70F4B00221A7771
:10B99000CAE76068FFF736FF4CF25030FFF7A8FEA9
:10B9A00007460A4A536923F4004323F00403536112
:10B9B00000E03560FFF760FF034B00221A70384645
:10B9C000F8BD0227FBE700BF7800002000200240FE
:10B9D000F0B583B000233FE0C66A26EA0406C5F34B
:10B9E000C0049C403443C4625FE0062400E00024AD
:10B9F000B4403C430235644E46F82540634C25680C
:10BA0000D44304EA05064F6817F4803F01D042EAA8
:10BA100005065E4D2E606D6804EA05064F6817F452
:10BA2000003F01D042EA0506584D6E60AD6804EA59
:10BA300005064F6817F4801F01D042EA0506534DF2
:10BA4000AE60ED682C404E6816F4001F01D042EA4B
:10BA500005044E4AD46001330A6832FA03F400F058
:10BA6000918001249C402240F5D04D686E1E012E2D
:10BA700003D9112D01D0122D12D186685F00032544
:10BA8000BD4026EA0506CD68BD4035438560466861
:10BA900026EA04064D68C5F300159D403543456010
:10BAA0004D6805F00306032E96D0C5685F00032499
:10BAB000BC40E44325408E68BE402E43C6604D68BE
:10BAC000022D01D0122D13D1DE08083650F826E0E1
:10BAD00003F007054FEA850C0F2505FA0CF52EEA51
:10BAE000050E0D6905FA0CF545EA0E0540F82650DD
:10BAF00005682C404D6805F00305BD402C430460EB
:10BB00004C6814F0805FA6D0214C256E45F00105ED
:10BB10002566246E04F001040194019C9D08AE1C6E
:10BB2000194C54F8267003F00304A6000F24B44007
:10BB300027EA0407B0F1904F3FF459AF154CA042EB
:10BB400016D004F58064A04214D004F58064A042AD
:10BB500012D004F58064A04210D004F58064A042A5
:10BB60000ED004F58064A0423FF43FAF07243FE7C6
:10BB700001243DE702243BE7032439E7042437E7A7
:10BB8000052435E703B0F0BD00000140000401408A
:10BB900000100240000400480AB9816270478161C8
:10BBA00070470000024A136843F4807313607047C3
:10BBB00000700040024B186800F4C060704700BF7E
:10BBC00000700040B0F5007F0FD01F4B1B6803F4DE
:10BBD000C063B3F5806F34D01B4A136823F4C0638D
:10BBE00043F48063136000207047174B1B6803F415
:10BBF000C063B3F5007F22D0134A136823F4C063F7
:10BC000043F400731360114B1A68322303FB02F3F1
:10BC10000F4AA2FB03239B0C013300E0013B0A4ABD
:10BC2000526912F4806F01D0002BF7D1064B5B698B
:10BC300013F4806F01D1002070470320704700206B
:10BC400070470020704700BF00700040980000203F
:10BC500083DE1B43024A536843F48063536070479A
:10BC600000700040074AD36823F4E0631B041B0CF8
:10BC7000000200F4E060184340F0BF6040F4003080
:10BC8000D060704700ED00E030B4174BDB68C3F3C1
:10BC90000223C3F10704042C28BF04241D1D062D14
:10BCA00018D9033B4FF0FF3505FA04F421EA0401EB
:10BCB000994005FA03F322EA0303194300280BDB3A
:10BCC0000901C9B200F1604000F5614080F800133D
:10BCD00030BC70470023E5E700F00F000901C9B24E
:10BCE000024B1954F4E700BF00ED00E014ED00E052
:10BCF000002807DB00F01F02400901239340024A9D
:10BD000042F82030704700BF00E100E00138B0F198
:10BD1000807F0AD2064B5860064AF02182F8231031
:10BD20000020986007221A6070470120704700BF0A
:10BD300010E000E000ED00E02DE9F0480446016865
:10BD400083680269134342691343C2691343086855
:10BD5000A24A024013430B602268536823F4405305
:10BD6000E1680B435360A16922689D4B9A4201D060
:10BD7000236A1943936823F430630B439360236869
:10BD8000984A934227D0984A934238D0974A934290
:10BD90004ED0974A934261D0964A934274D0904ACB
:10BDA000934200F08A8010258D4A934200F0AA80C9
:10BDB000E369B3F5004F00F03581082D00F2BF8133
:10BDC000DFE815F07F0195019F01BD01AA01BD01CA
:10BDD000BD01BD01B40102F55842D2F8882002F03D
:10BDE0000302032A09D8DFE802F0020481060125D4
:10BDF000DAE70425D8E70825D6E71025D4E702F5C9
:10BE0000E632D2F8882002F00C020C2A0ED8DFE8C5
:10BE100002F0070D0D0D090D0D0D6F0D0D0D0B0031
:10BE20000025C1E70425BFE70825BDE71025BBE7CE
:10BE300002F5E432D2F8882002F03002102A09D04C
:10BE400005D9202A56D0302A06D10825ACE71AB9E0
:10BE50000025A9E70425A7E71025A5E702F5E232AA
:10BE6000D2F8882002F0C002402A09D005D9802AE1
:10BE700042D0C02A06D1082596E71AB9002593E7D3
:10BE8000042591E710258FE702F5E032D2F88820EB
:10BE900002F44072B2F5807F0BD007D9B2F5007F73
:10BEA0002CD0B2F5407F06D108257DE71AB90025D0
:10BEB0007AE7042578E7102576E702F5C832D2F84C
:10BEC000882002F44062B2F5806F0BD007D9B2F53A
:10BED000006F15D0B2F5406F06D1082564E71AB996
:10BEE000002561E704255FE710255DE702255BE794
:10BEF000022559E7022557E7022555E7022553E7B2
:10BF0000022551E7082D00F21D81DFE815F00C0035
:10BF10001B0114001B0111001B011B011B01090067
:10BF20004FF4004008E0FEF7E5FF28B90020D9E013
:10BF3000FEF7B8FBF9E73048626802EB4203834240
:10BF400000F20281B0EB023F00F20081082D66D8BA
:10BF5000DFE805F005652065306565655800FEF78A
:10BF6000C9FF0025070E0602626850082B4616EB33
:10BF7000000B47F1000C58466146FCF779F903467F
:10BF80002846A3F540711D4A914200F2E1802268E3
:10BF9000D360A7E0560800252B46DFF864B04FF0C9
:10BFA000000C1BEB06004CF10001FCF761F90346A5
:10BFB0002846E6E7FEF776FB0025070E06026268D4
:10BFC00050082B4616EB000B47F1000C5846614613
:10BFD000FCF74EF903462846D3E700BFF369FFEFAD
:10BFE000008000400038014000440040004800400C
:10BFF000004C0040005000400024F400FFFC0F0003
:10C00000000024F45008002700252B4610F50000FE
:10C0100047F10001FCF72CF903462846B1E701205F
:10C020000023AEE7082D49D8DFE805F0051E2948B2
:10C03000344848483F00FEF75DFF6268530803EB51
:10C040004003B3FBF2F39BB20020A3F110014FF6C3
:10C05000EF7291427ED89AB222F00F02C3F34203EC
:10C0600013432268D3603DE0FEF756FF6268530831
:10C0700003EB4003B3FBF2F39BB20020E5E76268F9
:10C08000530803F1F47303F59043B3FBF2F39BB24F
:10C090000020DAE7FEF706FB6268530803EB400373
:10C0A000B3FBF2F39BB20020CFE76268530803F5BD
:10C0B0008033B3FBF2F39BB20020C6E701200023DC
:10C0C000C3E7FEF717FF636800EB5302B2FBF3F21E
:10C0D00092B20020A2F110014FF6EF7399423BD8C3
:10C0E0002368DA60002222666266BDE8F088FEF707
:10C0F00013FF636800EB5302B2FBF3F292B200202D
:10C10000E8E763685A0802F5740202F51052B2FBC0
:10C11000F3F292B20020DDE7FEF7C4FA636800EBA9
:10C120005302B2FBF3F292B20020D3E763685A08DD
:10C1300002F50042B2FBF3F292B20020CAE70120FE
:10C140000022C7E70120CDE70120CBE70120C9E7A6
:10C150000120C7E70120C5E70120C3E7436A13F0C8
:10C16000010F06D00268536823F40033816A0B4341
:10C170005360436A13F0020F06D00268536823F439
:10C180008033C16A0B435360436A13F0040F06D037
:10C190000268536823F48023016B0B435360436AA6
:10C1A00013F0080F06D00268536823F40043416B74
:10C1B0000B435360436A13F0100F06D00268936874
:10C1C00023F48053816B0B439360436A13F0200F79
:10C1D00006D00268936823F40053C16B0B4393604D
:10C1E000436A13F0400F0AD00268536823F48013A7
:10C1F000016C0B435360036CB3F5801F0BD0436A93
:10C2000013F0800F06D00268536823F40023816C7A
:10C210000B43536070470268536823F4C003416CBA
:10C220000B435360EBE72DE9F04104460F461646F9
:10C230009846069D2368DB6937EA03030CBF012398
:10C240000023B3423AD1B5F1FF3FF3D0FEF7C8F96E
:10C25000A0EB0800A8421FD8F5B123681A6812F0B5
:10C26000040FE7D0DA6912F4006FE3D04FF40062F4
:10C270001A622268136823F4D073136022689368EB
:10C2800023F00103936020236367A367E367002320
:10C2900084F87030032012E02268136823F4D0730E
:10C2A00013602268936823F001039360202363677F
:10C2B000A367002384F87030032000E00020BDE86D
:10C2C000F0812DE9F04182B01E46436F202B55D1FD
:10C2D00004460D469046002955D0002A55D090F8C6
:10C2E0007030012B53D0012380F870300023C367D6
:10C2F00021234367FEF774F90746A4F85080A4F899
:10C300005280A368B3F5805F05D04FF0000800238A
:10C3100084F8703013E0236913B14FF00008F6E79A
:10C32000A8460025F3E738F8023B2268C3F3080368
:10C330001385B4F85230013B9BB2A4F85230B4F8E4
:10C3400052309BB273B100963B46002280212046BA
:10C35000FFF769FFE8B9002DE5D0236815F8012B38
:10C360001A85E6E700963B46002240212046FFF76B
:10C370005AFF034678B92022626700E0022318467C
:10C3800002B0BDE8F0810123F9E70123F7E70223BA
:10C39000F5E70323F3E70323F1E730B583B0044661
:10C3A0000023C367FEF71CF9054623681B6813F0DA
:10C3B000080F0CD123681B6813F0040F15D120233C
:10C3C0006367A367002084F8700003B030BD6FF08E
:10C3D0007E430093034600224FF400112046FFF7EE
:10C3E00022FF0028E6D00320EFE76FF07E430093A2
:10C3F0002B4600224FF480012046FFF714FF00284F
:10C40000DDD00320E1E768B310B50446436F03B302
:10C41000242363672268136823F001031360204616
:10C42000FFF78AFC012813D0636ABBB922685368FE
:10C4300023F4904353602268936823F02A039360A7
:10C440002268136843F0010313602046FFF7A5FF3D
:10C4500010BD80F87030FCF71BFED9E72046FFF7CF
:10C460007DFEE3E7012070470F49D1F8883043F49F
:10C470007003C1F888300D4B1A6842F001021A604F
:10C48000002098601A6822F0A85222F410221A6044
:10C490004FF48052DA601A6822F480221A609861A0
:10C4A0004FF000638B60704700ED00E00010024029
:10C4B00098B108B50346D0F8B40210B10020C3F813
:10C4C000B40209B1C3F8B0121846012380F89C32B7
:10C4D0000270FCF72FFA002008BD0220704719B146
:10C4E000C0F8B412002070470220704708B5FCF76E
:10C4F00055FA002008BD08B5D0F8B43233B11B6836
:10C50000984708B9002008BD0220FCE70220FAE79E
:10C5100008B5D0F8B4325B689847002008BD38B53C
:10C52000044600F52A75284600F04AF90123C4F8AC
:10C530009432B4F8AE32C4F8983294F8A81201F0EC
:10C540001F03012B0ED03BB1022B10D001F0800154
:10C550002046FCF750FA03E02946204600F0EFFAA7
:10C56000002038BD2946204600F01DFBF8E729468B
:10C57000204600F048FBF3E738B50446A1BB10465F
:10C58000D4F89432032B03D0052B24D0002037E0BD
:10C59000D4F86031D4F8642193420DD99B1AC4F8C1
:10C5A00060319A4206D99AB20146204600F072FCE8
:10C5B000002025E092B2F7E7D4F8B4321B692BB122
:10C5C00094F89C22032A01D120469847204600F087
:10C5D00069FC002014E00025C4F894522946204646
:10C5E000FCF709FA28460BE00A46D0F8B4329B69FA
:10C5F0003BB190F89C12032905D1114698470020C1
:10C6000038BD0220FCE70220FAE710B504460029F5
:10C6100053D11046D4F89432022B0CD0042B00D006
:10C620001BB980212046FCF7E6F994F8A032012BD3
:10C630003FD000204DE0236A626A93421DD8E16931
:10C64000B1FBF2F302FB13132BB98A4203D8D4F8DF
:10C65000983299421FD3D4F8B432DB682BB194F8E6
:10C660009C22032A01D12046984780212046FCF7CE
:10C67000C2F9204600F021FCD7E79A1A226292B252
:10C680000146204600F0EFFB00231A4619462046DB
:10C69000FCF700FAC9E700221146204600F0E3FB50
:10C6A0000021C4F898120B460A462046FCF7F2F91E
:10C6B000BBE7002084F8A0020BE00A46D0F8B432B1
:10C6C0005B693BB190F89C12032905D1114698474C
:10C6D000002010BD0220FCE70220FAE770B50446F6
:10C6E000402300221146FCF767F90125C4F8585190
:10C6F0004026C4F864613346002280212046FCF7BE
:10C700005BF9A561666284F89C520023C4F89432F8
:10C710006360C4F8A432D4F8B8322BB1D4F8B43280
:10C720005B68002120469847002070BD01740020FE
:10C73000704790F89C3280F89D32042380F89C3238
:10C740000020704790F89C32042B01D000207047E5
:10C7500090F89D3280F89C32F8E708B590F89C324A
:10C76000032B01D0002008BDD0F8B432DB69002BC8
:10C77000F8D09847F6E70020704700207047002067
:10C78000704708B5012280F89C22D0F8B422526884
:10C7900001799047002008BD002302E00133DBB29D
:10C7A00001300278002AF9D11846704708B54B8845
:10C7B000012B00D008BDC0F8A43200F073FBF9E7EC
:10C7C0000B7803704B7843708B78CA7803EB0223A5
:10C7D00043800B794A7903EB022383808B79CA79F2
:10C7E00003EB0223C380704710B504468021FCF799
:10C7F00002F900212046FCF7FEF810BD30B583B0E9
:10C8000005460C460023ADF806304A88130A013B62
:10C810000E2B00F2B580DFE803F015293DB3B39786
:10C82000A4B3B3B3B3B3B3B30800D0F8B032DB6989
:10C8300023B10DF10601007C98470AE02146FFF77D
:10C84000D3FF11E0D0F8B0321B680DF10601007C77
:10C850009847BDF806201AB1E388002B40F0948079
:10C86000E388002B00F09A8003B030BD037C43B90D
:10C87000D0F8B4329B6A0DF106009847022343704A
:10C88000E7E7D0F8B432DB6A0DF1060098470223DF
:10C890004370DEE7D2B2052A52D8DFE802F0031077
:10C8A0001D2A3744D0F8B0325B6823B10DF1060180
:10C8B000007C9847CDE72146FFF796FFD4E7D0F8F4
:10C8C000B0329B6823B10DF10601007C9847C0E7A8
:10C8D0002146FFF789FFC7E7D0F8B032DB6823B104
:10C8E0000DF10601007C9847B3E72146FFF77CFF76
:10C8F000BAE7D0F8B0321B6923B10DF10601007C14
:10C900009847A6E72146FFF76FFFADE7D0F8B032B2
:10C910005B6923B10DF10601007C984799E7214638
:10C92000FFF762FFA0E7D0F8B0329B6923B10DF1A9
:10C930000601007C98478CE72146FFF755FF93E7F7
:10C940002146FFF751FF8FE7037C33B9D0F8B432AB
:10C950005B6B0DF1060098477BE72146FFF744FF2C
:10C9600082E7037C43B9D0F8B4321B6B0DF10600AB
:10C970009847072343706CE72146FFF735FF73E7BD
:10C980002146FFF731FF6FE79A4228BF1A46ADF8FC
:10C9900006200146284600F059FA61E7284600F0D3
:10C9A00081FA61E738B504468B88F3B9CB88E3B9DF
:10C9B0004B887F2B19D803F07F0590F89C32032B0E
:10C9C0000CD080F89E522946FCF748F8204600F02B
:10C9D00069FA35B1022384F89C3209E0FFF704FFBD
:10C9E00006E0012384F89C3202E02046FFF7FCFEBB
:10C9F00038BD000038B504460D468978284B1970BB
:10CA000001290ED890F89C32022B0ED0032B21D096
:10CA10002946FFF7E9FE224B19782046FFF778FDFB
:10CA200002E02946FFF7E0FE38BD81B141600323F3
:10CA300080F89C32FFF75FFD022803D0204600F00B
:10CA400031FAF1E729462046FFF7CEFEECE700F089
:10CA500029FAE9E789B1436899421DD0D9B2FFF7B5
:10CA600057FD0F4B197861602046FFF744FD0228FF
:10CA70000DD0204600F016FAD6E7022380F89C324B
:10CA80004160FFF745FD204600F00CFACCE729464F
:10CA90002046FFF7A9FEC7E700F004FAC4E700BF8D
:10CAA0005104002008B5CB88012B0BD190F89C32A3
:10CAB0009BB1022B09D9032B0FD10122011D00F0DC
:10CAC000C5F901E0FFF790FE08BD0146002341F8DB
:10CAD000083F012200F0BAF9F6E7FFF785FEF3E719
:10CAE00008B590F89C32013B022B12D8CB88022B60
:10CAF0000CD10123C360D0F8A4320BB10323C3606F
:10CB0000022200F10C0100F0A1F908BDFFF76CFE54
:10CB1000FBE7FFF769FEF8E708B590F89C32013BA8
:10CB2000022B09D84B88012B00D008BD0023C0F888
:10CB3000A43200F0B7F9F8E7FFF756FEF5E708B5BD
:10CB40000B7803F06003202B05D0402B03D043B1BA
:10CB5000FFF74AFE03E0D0F8B4329B689847002004
:10CB600008BD4B78092B1BD8DFE803F011171A1406
:10CB70001A08051A0E0BFFF741FEF0E7FFF712FF48
:10CB8000EDE7FFF737FFEAE7FFF78CFFE7E7FFF78F
:10CB9000A7FFE4E7FFF70AFEE1E7FFF7BDFFDEE7E7
:10CBA000FFF722FEDBE738B505460C460B7803F0AD
:10CBB0006003202B06D0402B04D01BB1FFF714FEDE
:10CBC000002038BD95F89C32013B022B16D8237902
:10CBD000012B0ED8D5F8B4329B68214628469847D9
:10CBE000E388002BECD10028EAD1284600F05AF95E
:10CBF000E6E721462846FFF7F7FDE1E7214628460C
:10CC0000FFF7F2FDDCE738B504468A880B7803F0BD
:10CC10006003202B08D0D0B2402B05D05BB120465A
:10CC2000FFF7E2FD002005E0D4F8B4329B6820460F
:10CC30009847002038BD202B05D1D4F8B4329B682A
:10CC400020469847F6E74B78012B32D0002B5ED078
:10CC5000032B40F0D88094F89C32022B06D0032B93
:10CC600016D02046FFF7C0FD0020E3E708B180287A
:10CC700004D12046FFF7B8FD0020DBE7014620463F
:10CC8000FBF7B9FE80212046FBF7B5FE0020D1E777
:10CC90004B8823B918B1802801D0CB8823B1204616
:10CCA00000F000F90020C5E701462046FBF7A3FE8F
:10CCB000F5E794F89C32022B06D0032B16D02046C1
:10CCC000FFF792FD0020B5E708B1802804D1204687
:10CCD000FFF78AFD0020ADE701462046FBF78BFEFB
:10CCE00080212046FBF787FE0020A3E74B88002B1E
:10CCF00040F08E8010F07F0F04D1204600F0D2F873
:10CD0000002097E701462046FBF783FEF5E794F8FD
:10CD10009C32022B06D0032B2AD02046FFF764FD5D
:10CD2000002087E708B1802813D112F0800F15D1B9
:10CD300000F07F0000EB8000830003F5A871214420
:10CD4000043100250D600222204600F07FF82846BD
:10CD500070E72046FFF748FD00206BE700F07F00FA
:10CD600000EB8000830003F1100121440431E8E767
:10CD700052B2002A1FDB00F00F0303EB83039D0078
:10CD80002544D5F8583123B3002A27DB00F07F0271
:10CD900002EB8202930003F5A8752544043508B11F
:10CDA000802825D100232B6002222946204600F04E
:10CDB0004DF800203EE700F00F0303EB83039D00D6
:10CDC0002544AB69002BDFD12046FFF70DFD002085
:10CDD00030E72046FFF708FD00202BE700F07F0238
:10CDE00002EB8202930003F1100525440435D6E7D7
:10CDF00001462046FBF71BFE10B101232B60D3E751
:10CE000000232B60D0E72046FFF7EEFC002011E75F
:10CE100000200FE7C8B170B50D4616460446FFF76F
:10CE2000BBFC013040003080287003236B7002236C
:10CE300007E001345A1CD2B2E9540233DBB20021BC
:10CE4000A95421780029F4D170BD704710B513465C
:10CE50000222C0F89422C36103620A460021FBF754
:10CE60000BFE002010BD08B513460A460021FBF753
:10CE700003FE002008BD10B513460322C0F894221B
:10CE8000C0F85C31C0F860310A460021FBF702FEB1
:10CE9000002010BD08B513460A460021FBF7FAFD35
:10CEA000002008BD08B50423C0F8943200231A46B8
:10CEB0001946FBF7E1FD002008BD08B50523C0F8C1
:10CEC000943200231A461946FBF7E4FD002008BD02
:10CED00010B5D0F8B842D0F8BC325BB194F800027B
:10CEE000FF2807D09B6894F8012221469847FF232A
:10CEF00084F80032002010BD4323038000487047AF
:10CF0000D40000204323038000487047180100200C
:10CF10004323038000487047680100200A230380F0
:10CF2000004870475C01002038B50446D0F8B8527C
:10CF3000FBF7BEFDC5F80C02D4F8B8324BB1D4F8FB
:10CF4000BC32DB6805F50371D5F804029847002070
:10CF500038BD0220FCE770B5D0F8B822D0F8C05236
:10CF6000FAB101EB8104A3000344DB694BB1C1EBCF
:10CF7000C106B40025446D6CB3FBF5F405FB143316
:10CF80001BB10020C2F8140270BD01EB81029300B6
:10CF900003440024DC6123462246FBF76DFD204656
:10CFA000F2E70220F0E770B582B005460C46D0F8F3
:10CFB000B86200238DF80730ADF804300B7813F019
:10CFC000600227D0202A56D1CA883AB9D0F8BC329C
:10CFD0009B6800224878984700204FE013F0800FAC
:10CFE0000CD0D0F8BC329B68314660789847E28814
:10CFF00031462846FFF72AFF00203FE04B7886F8AD
:10D0000000328B7986F80132CA883146FFF733FF48
:10D01000002033E04B780A2B14D00B2B21D01BB10E
:10D02000FFF7E2FB022029E090F89C32032B05D1A8
:10D03000022201A9FFF70AFF00201FE0FFF7D4FB3F
:10D0400002201BE090F89C32032B06D101220DF147
:10D050000701FFF7FBFE002010E0FFF7C5FB0220F1
:10D060000CE090F89C32032B01D1002006E0FFF782
:10D07000BBFB022002E0FFF7B7FB022002B070BD4D
:10D0800038B504468121FBF7A8FC0025E5620121A3
:10D090002046FBF7A2FCC4F86C5182212046FBF726
:10D0A0009CFC2564D4F8B8324BB1D4F8BC325B6830
:10D0B0009847D4F8B802FBF737FDC4F8B8520020FF
:10D0C00038BD38B50446037CA3BB4FF4007302227D
:10D0D0008121FBF771FC0125E5624FF40073022208
:10D0E00029462046FBF768FCC4F86C51082303224C
:10D0F00082212046FBF760FC012323644FF4077074
:10D10000FBF70EFD0546C4F8B80268B3D4F8BC328C
:10D110001B6898470023C5F81432C5F81832237CE1
:10D12000C3B14023D5F8042201212046FBF7B2FC0D
:10D13000002038BD402302228121FBF73DFC012560
:10D14000E5624023022229462046FBF735FCC4F85D
:10D150006C51CBE74FF40073D5F80422012120462F
:10D16000FBF798FC0020E4E70120E2E719B1C0F8E2
:10D17000BC120020704702207047D0F8B832C3F8C4
:10D180000812C3F8102200207047D0F8B832C3F854
:10D19000041200207047D0F8B822A2B108B5D2F826
:10D1A00014320BB1012008BD0123C2F81432D2F8A9
:10D1B00010320363B2F81032D2F808228121FBF753
:10D1C0005BFC0020EFE702207047D0F8B8229AB14C
:10D1D00008B5037C3BB14023D2F804220121FBF7C0
:10D1E00059FC002008BD4FF40073D2F8042201213D
:10D1F000FBF750FC0020F5E702207047DFF834D041
:10D20000002103E00C4B5B58435004310B480C4B9E
:10D2100042189A42F6D30B4A02E0002342F8043B3C
:10D22000094B9A42F9D3FFF71FF900F011F8FBF709
:10D2300061FAFEE700800120D8DC00080000002031
:10D240001002002010020020481E0020FEE700000F
:10D2500070B50D4E0D4CA41BA4100025A54209D19C
:10D260000B4E0C4C00F044FCA41BA4100025A5425E
:10D2700005D170BD56F8253098470135EEE756F8D0
:10D28000253098470135F2E7C8DC0008C8DC000803
:10D29000C8DC0008CCDC000830B50024A24201D173
:10D2A000002007E0035D01340D1915F8015CAB4265
:10D2B000F4D0581B30BD02440346934200D170475E
:10D2C00003F8011BF9E700000EB400B59CB01DABDC
:10D2D000029006906FF000410948079104910949B6
:10D2E00053F8042B05910068019302A900F066F839
:10D2F000029B00221A701CB05DF804EB03B070476B
:10D30000AC0100200802FFFF2DE9F0478E689E4225
:10D3100082460C469046994637D88A8912F4906F17
:10D3200031D0256809696F1A6569022305EB450547
:10D3300095FBF3F509F101033B449D4238BF1D46BF
:10D34000530530D5294600F02BFB064650B90C2377
:10D35000CAF80030A38943F04003A3814FF0FF30A7
:10D36000BDE8F0873A46216900F0A8FAA38923F4C2
:10D37000906343F08003A381266165613E44ED1B09
:10D380002660A5604E464E4500D94E46324641467F
:10D39000206800F09EFAA3689B1BA36023681E44CC
:10D3A00026600020DCE72A4600F054FB06460028F1
:10D3B000E2D12169504600F0A5FAC8E72DE9F04F07
:10D3C0001D468B891F069DB080460C4616460FD51C
:10D3D0000B696BB9402100F0E3FA2060206128B9A5
:10D3E0000C23C8F800304FF0FF30C8E040236361E1
:10D3F0000023099320238DF8293030238DF82A301B
:10D4000003954FF0010B37463D4615F8013B0BB134
:10D41000252B3ED1B7EB060A0BD0534632462146A8
:10D420004046FFF771FF013000F0A480099B534490
:10D4300009933B78002B00F09D8000234FF0FF32D2
:10D44000CDE90523049307938DF853301A932F46A3
:10D45000052217F8011B5048FAF7BAFE049BD0B911
:10D46000D90644BF20228DF853201A0744BF2B222F
:10D470008DF853202A782A2A15D0079A2F460020A3
:10D480000A25394611F8013B303B092B4DD9B8B17B
:10D490000FE02F46B8E7404A801A0BFA00F0184315
:10D4A00004903D46D3E7039A111D12680391002AA8
:10D4B00001DB079204E0524243F002030792049317
:10D4C0003B782E2B0CD17B782A2B33D1039B1A1D52
:10D4D0001B680392002BB8BF4FF0FF330237059350
:10D4E0002E4D397803222846FAF772FE38B14023D0
:10D4F000401B03FA00F0049B03430137049339787F
:10D5000027488DF8281006227E1CFAF761FE0028B5
:10D5100038D0244B13BB039B073323F00703083396
:10D520000393099B4B4409936DE705FB02320120ED
:10D530000F46A6E700230137059319460A2538460A
:10D5400010F8012B303A092A03D9002BC8D00591D5
:10D55000C6E705FB012101230746F0E703AB009373
:10D560002246114B04A94046AFF30080B0F1FF3FC3
:10D570008146D6D1A3895B063FF535AF09981DB02A
:10D58000BDE8F08F03AB00932246074B04A9404649
:10D5900000F082F8EAE700BF8CDC000892DC0008AB
:10D5A00096DC00080000000009D300082DE9F047D0
:10D5B00091461F468A680B69DDF820809342B8BF08
:10D5C0001346C9F8003091F8432006460C4612B1C4
:10D5D0000133C9F800302368990642BFD9F80030FA
:10D5E0000233C9F80030256815F0060507D104F1AB
:10D5F000190AE368D9F800209B1AAB4228DC94F89A
:10D6000043302268003318BF012392062DD404F161
:10D61000430239463046C047013020D02368E568D0
:10D62000D9F8002003F00603042B08BFAD1AA36845
:10D6300022690CBF25EAE57500259342C4BF9B1AF9
:10D64000ED184FF000091A344D451AD1002008E0BA
:10D650000123524639463046C047013003D14FF0CE
:10D66000FF30BDE8F0870135C3E7E1185A1C3020D0
:10D6700081F84300224494F8451082F843100233A5
:10D68000C5E70123224639463046C0470130E6D07F
:10D6900009F10109D8E700002DE9F04301F1430C3D
:10D6A0000C46097E85B06E291746064698460C9AA8
:10D6B00000F0B38022D8632936D00AD8002900F0C0
:10D6C000B980582900F0838004F1420584F84210A3
:10D6D00032E0642901D06929F6D120681368050673
:10D6E00003F104012AD51B681160002B03DA2D22F7
:10D6F0005B4284F843206F480A2239E0732900F026
:10D700009D8008D86F2920D07029DDD1236843F08F
:10D710002003236003E0752917D07829D4D178231A
:10D7200084F84530644855E01368191D1B68116082
:10D7300004F1420584F8423001238CE01B6811603B
:10D7400010F0400F18BF1BB2CFE713682568181DF3
:10D750001060280601D51B6802E06806FBD51B880F
:10D7600054486F2914BF0A220822002184F843106C
:10D770006568A560002DC0F29580216821F0040144
:10D780002160002B3DD1002D40F08E806546082A97
:10D790000BD12368DB0708D5236962689A42DEBF94
:10D7A000302305F8013C05F1FF35ACEB050323619F
:10D7B000CDF800803B4603AA21463046FFF7F6FE2F
:10D7C00001304DD14FF0FF3005B0BDE8F08339484E
:10D7D00084F84510136821681D1D1B6815600A0632
:10D7E0000BD5CA0744BF41F0200121601BB9226854
:10D7F00022F0200222601022B7E74D0648BF9BB2FC
:10D80000EFE76546B3FBF2F102FB1133C35C05F8A9
:10D81000013D0B460029F5D1B9E713682568616918
:10D82000181D106028061B6801D5196002E06A0601
:10D83000FBD51980002323616546B9E71368191DDC
:10D8400011601D68626800212846FAF7C1FC08B122
:10D85000401B606063682361002384F84330A7E7BE
:10D8600023692A4639463046C0470130AAD023688A
:10D870009B0713D4E068039B9842B8BF1846A3E700
:10D8800001234A4639463046C04701309AD0013517
:10D89000E368039A9B1AAB42F2DCEBE7002504F144
:10D8A0001909F5E7002BACD1037884F8423004F174
:10D8B00042056CE79DDC0008AEDC000810B5431E95
:10D8C0000A44914200D110BD11F8014B03F8014FF9
:10D8D000F7E7884210B501EB020307D8421E9942D0
:10D8E0000AD011F8014B02F8014FF8E78342F5D94D
:10D8F0008118D21AD34200D110BD13F8014D01F89E
:10D90000014DF7E738B50546002945D051F8043CEC
:10D910000C1F002BB8BFE41800F0D2F81F4A1368A0
:10D92000104633B9636014602846BDE8384000F003
:10D93000C8B8A3420CD921686218934204BF1A6880
:10D940005B68636004BF521822600460ECE7134612
:10D950005A680AB1A242FAD919685818A0420BD1E4
:10D9600020680144581882421960DDD1106852685D
:10D970005A6001441960D7E702D90C232B60D3E722
:10D98000206821188A4204BF11685268626004BF8F
:10D99000091821605C60C7E738BD00BF540400204F
:10D9A00070B5CD1C25F0030508350C2D38BF0C25AE
:10D9B000002D064601DBA94203D90C233360002069
:10D9C00070BD00F07DF8214A1468214691B9204CC1
:10D9D00023681BB9304600F063F8206029463046C2
:10D9E00000F05EF8431C24D10C233360304600F075
:10D9F00068F8E4E70B685B1B18D40B2B0FD90B609E
:10DA0000CD50CC18304600F05CF804F10B00231D1B
:10DA100020F00700C31AD3D05A42E250D0E78C421C
:10DA20004B6816BF636013600C46EBE70C46496811
:10DA3000CCE7C41C24F00304A04205D0211A3046D0
:10DA400000F02EF80130CFD02560DBE75404002031
:10DA500058040020F8B5074614460E4621B9114671
:10DA6000BDE8F840FFF79CBF22B9FFF74BFF254602
:10DA70002846F8BD00F026F8A0420FD221463846CD
:10DA8000FFF78EFF05460028F2D031462246FFF709
:10DA900015FF31463846FFF735FFE9E73546E7E73A
:10DAA00038B5064C002305460846236000F012F8FE
:10DAB000431C02D1236803B12B6038BD441E0020F3
:10DAC0007047704751F8043C181F002BBCBF0B581F
:10DAD000C0187047044A05491368002B08BF0B465D
